{
  "address": "0x63125Bee18B0A9543F29316D563538F882EFD381",
  "abi": [
    {
      "inputs": [
        {
          "internalType": "string",
          "name": "_name",
          "type": "string"
        },
        {
          "internalType": "address",
          "name": "_factory",
          "type": "address"
        },
        {
          "internalType": "uint256",
          "name": "_swapGasEstimate",
          "type": "uint256"
        }
      ],
      "stateMutability": "nonpayable",
      "type": "constructor"
    },
    {
      "anonymous": false,
      "inputs": [
        {
          "indexed": true,
          "internalType": "address",
          "name": "_asset",
          "type": "address"
        },
        {
          "indexed": false,
          "internalType": "uint256",
          "name": "amount",
          "type": "uint256"
        }
      ],
      "name": "Recovered",
      "type": "event"
    },
    {
      "anonymous": false,
      "inputs": [
        {
          "indexed": true,
          "internalType": "bytes32",
          "name": "role",
          "type": "bytes32"
        },
        {
          "indexed": true,
          "internalType": "bytes32",
          "name": "previousAdminRole",
          "type": "bytes32"
        },
        {
          "indexed": true,
          "internalType": "bytes32",
          "name": "newAdminRole",
          "type": "bytes32"
        }
      ],
      "name": "RoleAdminChanged",
      "type": "event"
    },
    {
      "anonymous": false,
      "inputs": [
        {
          "indexed": true,
          "internalType": "bytes32",
          "name": "role",
          "type": "bytes32"
        },
        {
          "indexed": true,
          "internalType": "address",
          "name": "account",
          "type": "address"
        },
        {
          "indexed": true,
          "internalType": "address",
          "name": "sender",
          "type": "address"
        }
      ],
      "name": "RoleGranted",
      "type": "event"
    },
    {
      "anonymous": false,
      "inputs": [
        {
          "indexed": true,
          "internalType": "bytes32",
          "name": "role",
          "type": "bytes32"
        },
        {
          "indexed": true,
          "internalType": "address",
          "name": "account",
          "type": "address"
        },
        {
          "indexed": true,
          "internalType": "address",
          "name": "sender",
          "type": "address"
        }
      ],
      "name": "RoleRevoked",
      "type": "event"
    },
    {
      "anonymous": false,
      "inputs": [
        {
          "indexed": true,
          "internalType": "address",
          "name": "_adapter",
          "type": "address"
        },
        {
          "indexed": false,
          "internalType": "uint256",
          "name": "_newEstimate",
          "type": "uint256"
        }
      ],
      "name": "UpdatedGasEstimate",
      "type": "event"
    },
    {
      "anonymous": false,
      "inputs": [
        {
          "indexed": true,
          "internalType": "address",
          "name": "_tokenFrom",
          "type": "address"
        },
        {
          "indexed": true,
          "internalType": "address",
          "name": "_tokenTo",
          "type": "address"
        },
        {
          "indexed": false,
          "internalType": "uint256",
          "name": "_amountIn",
          "type": "uint256"
        },
        {
          "indexed": false,
          "internalType": "uint256",
          "name": "_amountOut",
          "type": "uint256"
        }
      ],
      "name": "YakAdapterSwap",
      "type": "event"
    },
    {
      "inputs": [],
      "name": "DEFAULT_ADMIN_ROLE",
      "outputs": [
        {
          "internalType": "bytes32",
          "name": "",
          "type": "bytes32"
        }
      ],
      "stateMutability": "view",
      "type": "function"
    },
    {
      "inputs": [],
      "name": "MAINTAINER_ROLE",
      "outputs": [
        {
          "internalType": "bytes32",
          "name": "",
          "type": "bytes32"
        }
      ],
      "stateMutability": "view",
      "type": "function"
    },
    {
      "inputs": [
        {
          "internalType": "address",
          "name": "addedMaintainer",
          "type": "address"
        }
      ],
      "name": "addMaintainer",
      "outputs": [],
      "stateMutability": "nonpayable",
      "type": "function"
    },
    {
      "inputs": [
        {
          "internalType": "bytes32",
          "name": "role",
          "type": "bytes32"
        }
      ],
      "name": "getRoleAdmin",
      "outputs": [
        {
          "internalType": "bytes32",
          "name": "",
          "type": "bytes32"
        }
      ],
      "stateMutability": "view",
      "type": "function"
    },
    {
      "inputs": [
        {
          "internalType": "bytes32",
          "name": "role",
          "type": "bytes32"
        },
        {
          "internalType": "address",
          "name": "account",
          "type": "address"
        }
      ],
      "name": "grantRole",
      "outputs": [],
      "stateMutability": "nonpayable",
      "type": "function"
    },
    {
      "inputs": [
        {
          "internalType": "bytes32",
          "name": "role",
          "type": "bytes32"
        },
        {
          "internalType": "address",
          "name": "account",
          "type": "address"
        }
      ],
      "name": "hasRole",
      "outputs": [
        {
          "internalType": "bool",
          "name": "",
          "type": "bool"
        }
      ],
      "stateMutability": "view",
      "type": "function"
    },
    {
      "inputs": [],
      "name": "name",
      "outputs": [
        {
          "internalType": "string",
          "name": "",
          "type": "string"
        }
      ],
      "stateMutability": "view",
      "type": "function"
    },
    {
      "inputs": [
        {
          "internalType": "uint256",
          "name": "_amountIn",
          "type": "uint256"
        },
        {
          "internalType": "address",
          "name": "_tokenIn",
          "type": "address"
        },
        {
          "internalType": "address",
          "name": "_tokenOut",
          "type": "address"
        }
      ],
      "name": "query",
      "outputs": [
        {
          "internalType": "uint256",
          "name": "",
          "type": "uint256"
        }
      ],
      "stateMutability": "view",
      "type": "function"
    },
    {
      "inputs": [
        {
          "internalType": "uint256",
          "name": "_amount",
          "type": "uint256"
        }
      ],
      "name": "recoverAVAX",
      "outputs": [],
      "stateMutability": "nonpayable",
      "type": "function"
    },
    {
      "inputs": [
        {
          "internalType": "address",
          "name": "_tokenAddress",
          "type": "address"
        },
        {
          "internalType": "uint256",
          "name": "_tokenAmount",
          "type": "uint256"
        }
      ],
      "name": "recoverERC20",
      "outputs": [],
      "stateMutability": "nonpayable",
      "type": "function"
    },
    {
      "inputs": [
        {
          "internalType": "address",
          "name": "removedMaintainer",
          "type": "address"
        }
      ],
      "name": "removeMaintainer",
      "outputs": [],
      "stateMutability": "nonpayable",
      "type": "function"
    },
    {
      "inputs": [
        {
          "internalType": "bytes32",
          "name": "role",
          "type": "bytes32"
        },
        {
          "internalType": "address",
          "name": "account",
          "type": "address"
        }
      ],
      "name": "renounceRole",
      "outputs": [],
      "stateMutability": "nonpayable",
      "type": "function"
    },
    {
      "inputs": [
        {
          "internalType": "bytes32",
          "name": "role",
          "type": "bytes32"
        }
      ],
      "name": "renounceRole",
      "outputs": [],
      "stateMutability": "nonpayable",
      "type": "function"
    },
    {
      "inputs": [
        {
          "internalType": "address",
          "name": "_token",
          "type": "address"
        },
        {
          "internalType": "address",
          "name": "_spender",
          "type": "address"
        }
      ],
      "name": "revokeAllowance",
      "outputs": [],
      "stateMutability": "nonpayable",
      "type": "function"
    },
    {
      "inputs": [
        {
          "internalType": "bytes32",
          "name": "role",
          "type": "bytes32"
        },
        {
          "internalType": "address",
          "name": "account",
          "type": "address"
        }
      ],
      "name": "revokeRole",
      "outputs": [],
      "stateMutability": "nonpayable",
      "type": "function"
    },
    {
      "inputs": [
        {
          "internalType": "address",
          "name": "_referrer",
          "type": "address"
        }
      ],
      "name": "setReferrer",
      "outputs": [],
      "stateMutability": "nonpayable",
      "type": "function"
    },
    {
      "inputs": [
        {
          "internalType": "uint256",
          "name": "_estimate",
          "type": "uint256"
        }
      ],
      "name": "setSwapGasEstimate",
      "outputs": [],
      "stateMutability": "nonpayable",
      "type": "function"
    },
    {
      "inputs": [
        {
          "internalType": "bytes4",
          "name": "interfaceId",
          "type": "bytes4"
        }
      ],
      "name": "supportsInterface",
      "outputs": [
        {
          "internalType": "bool",
          "name": "",
          "type": "bool"
        }
      ],
      "stateMutability": "view",
      "type": "function"
    },
    {
      "inputs": [
        {
          "internalType": "uint256",
          "name": "_amountIn",
          "type": "uint256"
        },
        {
          "internalType": "uint256",
          "name": "_amountOut",
          "type": "uint256"
        },
        {
          "internalType": "address",
          "name": "_fromToken",
          "type": "address"
        },
        {
          "internalType": "address",
          "name": "_toToken",
          "type": "address"
        },
        {
          "internalType": "address",
          "name": "_to",
          "type": "address"
        }
      ],
      "name": "swap",
      "outputs": [],
      "stateMutability": "nonpayable",
      "type": "function"
    },
    {
      "inputs": [],
      "name": "swapGasEstimate",
      "outputs": [
        {
          "internalType": "uint256",
          "name": "",
          "type": "uint256"
        }
      ],
      "stateMutability": "view",
      "type": "function"
    },
    {
      "inputs": [
        {
          "internalType": "address",
          "name": "newOwner",
          "type": "address"
        }
      ],
      "name": "transferOwnership",
      "outputs": [],
      "stateMutability": "nonpayable",
      "type": "function"
    },
    {
      "stateMutability": "payable",
      "type": "receive"
    }
  ],
  "transactionHash": "0x3a5d2eb433ec667b97421f7b9c31c089e3278da1b77d0aae55d89434b6040f79",
  "args": [
    "CamelotAdapter",
    "0x6EcCab422D763aC031210895C81787E87B43A652",
    238412
  ],
  "solcInputHash": "68a7e50180b18b39c0c5f058635d9339",
  "bytecode": "0x60a06040523480156200001157600080fd5b50604051620020b3380380620020b383398101604081905262000034916200039b565b82813362000044600082620000a1565b620000707f339759585899103d2ace64958e37e18ccb0504652c81d4a1b8aa80fe2126ab9582620000a1565b506200007c82620000b1565b62000087816200011a565b50505060601b6001600160601b03191660805250620004e2565b620000ad828262000238565b5050565b8051620001055760405162461bcd60e51b815260206004820152601460248201527f496e76616c69642061646170746572206e616d6500000000000000000000000060448201526064015b60405180910390fd5b8051620000ad906002906020840190620002d8565b3360008181527fa54247010af6b3693b80aceddfad12e077c5de3571e6243fada502635f0d7d39602052604090205460ff16620001ab5760405162461bcd60e51b815260206004820152602860248201527f4d61696e7461696e61626c653a2043616c6c6572206973206e6f742061206d6160448201526734b73a30b4b732b960c11b6064820152608401620000fc565b81620001fa5760405162461bcd60e51b815260206004820152601460248201527f496e76616c6964206761732d657374696d6174650000000000000000000000006044820152606401620000fc565b600182905560405182815230907ff43f23b7a28e6f8ce6843a21bd7b48bce778aa913b8c8cf459edf7d770e8d38a9060200160405180910390a25050565b6000828152602081815260408083206001600160a01b038516845290915290205460ff16620000ad576000828152602081815260408083206001600160a01b03851684529091529020805460ff19166001179055620002943390565b6001600160a01b0316816001600160a01b0316837f2f8788117e7eff1d82e926ec794901d17c78024a50270940304540a733656f0d60405160405180910390a45050565b828054620002e6906200048f565b90600052602060002090601f0160209004810192826200030a576000855562000355565b82601f106200032557805160ff191683800117855562000355565b8280016001018555821562000355579182015b828111156200035557825182559160200191906001019062000338565b506200036392915062000367565b5090565b5b8082111562000363576000815560010162000368565b80516001600160a01b03811681146200039657600080fd5b919050565b600080600060608486031215620003b0578283fd5b83516001600160401b0380821115620003c7578485fd5b818601915086601f830112620003db578485fd5b815181811115620003f057620003f0620004cc565b604051601f8201601f19908116603f011681019083821181831017156200041b576200041b620004cc565b8160405282815260209350898484870101111562000437578788fd5b8791505b828210156200045a57848201840151818301850152908301906200043b565b828211156200046b57878484830101525b96506200047d9150508682016200037e565b93505050604084015190509250925092565b600181811c90821680620004a457607f821691505b60208210811415620004c657634e487b7160e01b600052602260045260246000fd5b50919050565b634e487b7160e01b600052604160045260246000fd5b60805160601c611bb26200050160003960006114390152611bb26000f3fe60806040526004361061016e5760003560e01c80638980f11f116100cb578063d547741f1161007f578063ef99893a11610059578063ef99893a14610400578063f2fde38b14610420578063f87422541461044057600080fd5b8063d547741f146103a0578063d8baf7cf146103c0578063eab90da6146103e057600080fd5b806391d14854116100b057806391d1485414610327578063a18a7bfc1461036b578063a217fddf1461038b57600080fd5b80638980f11f146102e75780638bb9c5bf1461030757600080fd5b80634ebb7916116101225780636b453c1f116101075780636b453c1f146102875780637ae26773146102a757806384a33e63146102c757600080fd5b80634ebb79161461025157806369cff80d1461027157600080fd5b8063248a9ca311610153578063248a9ca3146101d15780632f2ff15d1461020f57806336568abe1461023157600080fd5b806301ffc9a71461017a57806306fdde03146101af57600080fd5b3661017557005b600080fd5b34801561018657600080fd5b5061019a610195366004611886565b610474565b60405190151581526020015b60405180910390f35b3480156101bb57600080fd5b506101c46104dd565b6040516101a69190611a2e565b3480156101dd57600080fd5b506102016101ec36600461184a565b60009081526020819052604090206001015490565b6040519081526020016101a6565b34801561021b57600080fd5b5061022f61022a366004611862565b61056b565b005b34801561023d57600080fd5b5061022f61024c366004611862565b610595565b34801561025d57600080fd5b5061022f61026c36600461184a565b610626565b34801561027d57600080fd5b5061020160015481565b34801561029357600080fd5b5061022f6102a236600461178f565b61076e565b3480156102b357600080fd5b5061022f6102c23660046117c7565b61079b565b3480156102d357600080fd5b5061022f6102e236600461184a565b61083f565b3480156102f357600080fd5b5061022f6103023660046117ff565b610952565b34801561031357600080fd5b5061022f61032236600461184a565b610a8d565b34801561033357600080fd5b5061019a610342366004611862565b6000918252602082815260408084206001600160a01b0393909316845291905290205460ff1690565b34801561037757600080fd5b5061022f61038636600461178f565b610a98565b34801561039757600080fd5b50610201600081565b3480156103ac57600080fd5b5061022f6103bb366004611862565b610b62565b3480156103cc57600080fd5b5061022f6103db36600461178f565b610b87565b3480156103ec57600080fd5b5061022f6103fb366004611907565b610bb1565b34801561040c57600080fd5b5061020161041b3660046118c6565b610d76565b34801561042c57600080fd5b5061022f61043b36600461178f565b610d8d565b34801561044c57600080fd5b506102017f339759585899103d2ace64958e37e18ccb0504652c81d4a1b8aa80fe2126ab9581565b60006001600160e01b031982167f7965db0b0000000000000000000000000000000000000000000000000000000014806104d757507f01ffc9a7000000000000000000000000000000000000000000000000000000006001600160e01b03198316145b92915050565b600280546104ea90611b16565b80601f016020809104026020016040519081016040528092919081815260200182805461051690611b16565b80156105635780601f1061053857610100808354040283529160200191610563565b820191906000526020600020905b81548152906001019060200180831161054657829003601f168201915b505050505081565b60008281526020819052604090206001015461058681610da4565b6105908383610dae565b505050565b6001600160a01b03811633146106185760405162461bcd60e51b815260206004820152602f60248201527f416363657373436f6e74726f6c3a2063616e206f6e6c792072656e6f756e636560448201527f20726f6c657320666f722073656c66000000000000000000000000000000000060648201526084015b60405180910390fd5b6106228282610e4c565b5050565b3360008181527fa54247010af6b3693b80aceddfad12e077c5de3571e6243fada502635f0d7d39602052604090205460ff166106b55760405162461bcd60e51b815260206004820152602860248201527f4d61696e7461696e61626c653a2043616c6c6572206973206e6f742061206d6160448201526734b73a30b4b732b960c11b606482015260840161060f565b600082116107055760405162461bcd60e51b815260206004820152601e60248201527f59616b416461707465723a204e6f7468696e6720746f207265636f7665720000604482015260640161060f565b604051339083156108fc029084906000818181858888f19350505050158015610732573d6000803e3d6000fd5b506040518281526000907f8c1256b8896378cd5044f80c202f9772b9d77dc85c8a6eb51967210b09bfaa28906020015b60405180910390a25050565b6107987f339759585899103d2ace64958e37e18ccb0504652c81d4a1b8aa80fe2126ab958261056b565b50565b3360008181527fa54247010af6b3693b80aceddfad12e077c5de3571e6243fada502635f0d7d39602052604090205460ff1661082a5760405162461bcd60e51b815260206004820152602860248201527f4d61696e7461696e61626c653a2043616c6c6572206973206e6f742061206d6160448201526734b73a30b4b732b960c11b606482015260840161060f565b6105906001600160a01b038416836000610ecb565b3360008181527fa54247010af6b3693b80aceddfad12e077c5de3571e6243fada502635f0d7d39602052604090205460ff166108ce5760405162461bcd60e51b815260206004820152602860248201527f4d61696e7461696e61626c653a2043616c6c6572206973206e6f742061206d6160448201526734b73a30b4b732b960c11b606482015260840161060f565b8161091b5760405162461bcd60e51b815260206004820152601460248201527f496e76616c6964206761732d657374696d617465000000000000000000000000604482015260640161060f565b600182905560405182815230907ff43f23b7a28e6f8ce6843a21bd7b48bce778aa913b8c8cf459edf7d770e8d38a90602001610762565b3360008181527fa54247010af6b3693b80aceddfad12e077c5de3571e6243fada502635f0d7d39602052604090205460ff166109e15760405162461bcd60e51b815260206004820152602860248201527f4d61696e7461696e61626c653a2043616c6c6572206973206e6f742061206d6160448201526734b73a30b4b732b960c11b606482015260840161060f565b60008211610a315760405162461bcd60e51b815260206004820152601e60248201527f59616b416461707465723a204e6f7468696e6720746f207265636f7665720000604482015260640161060f565b610a456001600160a01b0384163384611070565b826001600160a01b03167f8c1256b8896378cd5044f80c202f9772b9d77dc85c8a6eb51967210b09bfaa2883604051610a8091815260200190565b60405180910390a2505050565b336106228282610595565b3360008181527fa54247010af6b3693b80aceddfad12e077c5de3571e6243fada502635f0d7d39602052604090205460ff16610b275760405162461bcd60e51b815260206004820152602860248201527f4d61696e7461696e61626c653a2043616c6c6572206973206e6f742061206d6160448201526734b73a30b4b732b960c11b606482015260840161060f565b50600380547fffffffffffffffffffffffff0000000000000000000000000000000000000000166001600160a01b0392909216919091179055565b600082815260208190526040902060010154610b7d81610da4565b6105908383610e4c565b6107987f339759585899103d2ace64958e37e18ccb0504652c81d4a1b8aa80fe2126ab9582610b62565b6040516370a0823160e01b81526001600160a01b038281166004830152600091908416906370a082319060240160206040518083038186803b158015610bf657600080fd5b505afa158015610c0a573d6000803e3d6000fd5b505050506040513d601f19601f82011682018060405250810190610c2e91906118ae565b9050610c3d86868686866110b9565b6040516370a0823160e01b81526001600160a01b03838116600483015260009183918616906370a082319060240160206040518083038186803b158015610c8357600080fd5b505afa158015610c97573d6000803e3d6000fd5b505050506040513d601f19601f82011682018060405250810190610cbb91906118ae565b610cc59190611abc565b905085811015610d175760405162461bcd60e51b815260206004820152601760248201527f496e73756666696369656e7420616d6f756e742d6f7574000000000000000000604482015260640161060f565b836001600160a01b0316856001600160a01b03167fe2bdbc6b7225eb0a972ac943c485a6cc05f7c6811838bce8903f23200fb744fa8989604051610d65929190918252602082015260400190565b60405180910390a350505050505050565b6000610d838484846111f8565b90505b9392505050565b33610d9960008361056b565b610622600082610595565b6107988133611234565b6000828152602081815260408083206001600160a01b038516845290915290205460ff16610622576000828152602081815260408083206001600160a01b03851684529091529020805460ff19166001179055610e083390565b6001600160a01b0316816001600160a01b0316837f2f8788117e7eff1d82e926ec794901d17c78024a50270940304540a733656f0d60405160405180910390a45050565b6000828152602081815260408083206001600160a01b038516845290915290205460ff1615610622576000828152602081815260408083206001600160a01b0385168085529252808320805460ff1916905551339285917ff6391f5c32d9c69d2a47ea670b442974b53935d1edc7fd64eb21e047a839171b9190a45050565b801580610f6d57506040517fdd62ed3e0000000000000000000000000000000000000000000000000000000081523060048201526001600160a01b03838116602483015284169063dd62ed3e9060440160206040518083038186803b158015610f3357600080fd5b505afa158015610f47573d6000803e3d6000fd5b505050506040513d601f19601f82011682018060405250810190610f6b91906118ae565b155b610fdf5760405162461bcd60e51b815260206004820152603660248201527f5361666545524332303a20617070726f76652066726f6d206e6f6e2d7a65726f60448201527f20746f206e6f6e2d7a65726f20616c6c6f77616e636500000000000000000000606482015260840161060f565b6040516001600160a01b0383166024820152604481018290526105909084907f095ea7b300000000000000000000000000000000000000000000000000000000906064015b60408051601f198184030181529190526020810180517bffffffffffffffffffffffffffffffffffffffffffffffffffffffff166001600160e01b0319909316929092179091526112b2565b6040516001600160a01b0383166024820152604481018290526105909084907fa9059cbb0000000000000000000000000000000000000000000000000000000090606401611024565b6000806110c78786866113f4565b915091508582101561111b5760405162461bcd60e51b815260206004820152601660248201527f496e737566666963656e7420616d6f756e74206f757400000000000000000000604482015260640161060f565b600080856001600160a01b0316876001600160a01b03161061113f57836000611143565b6000845b909250905061115c6001600160a01b038816848b611070565b604080516000815260208101918290526003547f6e1fdd7f000000000000000000000000000000000000000000000000000000009092526001600160a01b0385811692636e1fdd7f926111bb92879287928c9290911660248201611a41565b600060405180830381600087803b1580156111d557600080fd5b505af11580156111e9573d6000803e3d6000fd5b50505050505050505050505050565b6000816001600160a01b0316836001600160a01b03161415801561121b57508315155b15610d865761122b8484846113f4565b50949350505050565b6000828152602081815260408083206001600160a01b038516845290915290205460ff1661062257611270816001600160a01b03166014611568565b61127b836020611568565b60405160200161128c9291906119ad565b60408051601f198184030181529082905262461bcd60e51b825261060f91600401611a2e565b600080836001600160a01b0316836040516112cd9190611991565b6000604051808303816000865af19150503d806000811461130a576040519150601f19603f3d011682016040523d82523d6000602084013e61130f565b606091505b5091509150816113615760405162461bcd60e51b815260206004820181905260248201527f5361666545524332303a206c6f772d6c6576656c2063616c6c206661696c6564604482015260640161060f565b8051156113ee578080602001905181019061137c919061182a565b6113ee5760405162461bcd60e51b815260206004820152602a60248201527f5361666545524332303a204552433230206f7065726174696f6e20646964206e60448201527f6f74207375636365656400000000000000000000000000000000000000000000606482015260840161060f565b50505050565b6040517fe6a439050000000000000000000000000000000000000000000000000000000081526001600160a01b038381166004830152828116602483015260009182917f0000000000000000000000000000000000000000000000000000000000000000169063e6a439059060440160206040518083038186803b15801561147b57600080fd5b505afa15801561148f573d6000803e3d6000fd5b505050506040513d601f19601f820116820180604052508101906114b391906117ab565b90506001600160a01b03811615611560576040517ff140a35a000000000000000000000000000000000000000000000000000000008152600481018690526001600160a01b03858116602483015282169063f140a35a9060440160206040518083038186803b15801561152557600080fd5b505afa158015611539573d6000803e3d6000fd5b505050506040513d601f19601f8201168201806040525081019061155d91906118ae565b91505b935093915050565b60606000611577836002611a9d565b611582906002611a85565b67ffffffffffffffff8111156115a857634e487b7160e01b600052604160045260246000fd5b6040519080825280601f01601f1916602001820160405280156115d2576020820181803683370190505b5090507f30000000000000000000000000000000000000000000000000000000000000008160008151811061161757634e487b7160e01b600052603260045260246000fd5b60200101906001600160f81b031916908160001a9053507f78000000000000000000000000000000000000000000000000000000000000008160018151811061167057634e487b7160e01b600052603260045260246000fd5b60200101906001600160f81b031916908160001a9053506000611694846002611a9d565b61169f906001611a85565b90505b6001811115611740577f303132333435363738396162636465660000000000000000000000000000000085600f16601081106116ee57634e487b7160e01b600052603260045260246000fd5b1a60f81b82828151811061171257634e487b7160e01b600052603260045260246000fd5b60200101906001600160f81b031916908160001a90535060049490941c9361173981611aff565b90506116a2565b508315610d865760405162461bcd60e51b815260206004820181905260248201527f537472696e67733a20686578206c656e67746820696e73756666696369656e74604482015260640161060f565b6000602082840312156117a0578081fd5b8135610d8681611b67565b6000602082840312156117bc578081fd5b8151610d8681611b67565b600080604083850312156117d9578081fd5b82356117e481611b67565b915060208301356117f481611b67565b809150509250929050565b60008060408385031215611811578182fd5b823561181c81611b67565b946020939093013593505050565b60006020828403121561183b578081fd5b81518015158114610d86578182fd5b60006020828403121561185b578081fd5b5035919050565b60008060408385031215611874578182fd5b8235915060208301356117f481611b67565b600060208284031215611897578081fd5b81356001600160e01b031981168114610d86578182fd5b6000602082840312156118bf578081fd5b5051919050565b6000806000606084860312156118da578081fd5b8335925060208401356118ec81611b67565b915060408401356118fc81611b67565b809150509250925092565b600080600080600060a0868803121561191e578081fd5b8535945060208601359350604086013561193781611b67565b9250606086013561194781611b67565b9150608086013561195781611b67565b809150509295509295909350565b6000815180845261197d816020860160208601611ad3565b601f01601f19169290920160200192915050565b600082516119a3818460208701611ad3565b9190910192915050565b7f416363657373436f6e74726f6c3a206163636f756e74200000000000000000008152600083516119e5816017850160208801611ad3565b7f206973206d697373696e6720726f6c65200000000000000000000000000000006017918401918201528351611a22816028840160208801611ad3565b01602801949350505050565b602081526000610d866020830184611965565b85815284602082015260006001600160a01b03808616604084015260a06060840152611a7060a0840186611965565b91508084166080840152509695505050505050565b60008219821115611a9857611a98611b51565b500190565b6000816000190483118215151615611ab757611ab7611b51565b500290565b600082821015611ace57611ace611b51565b500390565b60005b83811015611aee578181015183820152602001611ad6565b838111156113ee5750506000910152565b600081611b0e57611b0e611b51565b506000190190565b600181811c90821680611b2a57607f821691505b60208210811415611b4b57634e487b7160e01b600052602260045260246000fd5b50919050565b634e487b7160e01b600052601160045260246000fd5b6001600160a01b038116811461079857600080fdfea2646970667358221220e08abf20064b8ac0065f01878964de8542499c3a8cf64b2c36097dbd17d5e2ac64736f6c63430008040033",
  "devdoc": {
    "kind": "dev",
    "methods": {
      "getRoleAdmin(bytes32)": {
        "details": "Returns the admin role that controls `role`. See {grantRole} and {revokeRole}. To change a role's admin, use {_setRoleAdmin}."
      },
      "grantRole(bytes32,address)": {
        "details": "Grants `role` to `account`. If `account` had not been already granted `role`, emits a {RoleGranted} event. Requirements: - the caller must have ``role``'s admin role. May emit a {RoleGranted} event."
      },
      "hasRole(bytes32,address)": {
        "details": "Returns `true` if `account` has been granted `role`."
      },
      "renounceRole(bytes32,address)": {
        "details": "Revokes `role` from the calling account. Roles are often managed via {grantRole} and {revokeRole}: this function's purpose is to provide a mechanism for accounts to lose their privileges if they are compromised (such as when a trusted device is misplaced). If the calling account had been revoked `role`, emits a {RoleRevoked} event. Requirements: - the caller must be `account`. May emit a {RoleRevoked} event."
      },
      "revokeRole(bytes32,address)": {
        "details": "Revokes `role` from `account`. If `account` had been granted `role`, emits a {RoleRevoked} event. Requirements: - the caller must have ``role``'s admin role. May emit a {RoleRevoked} event."
      },
      "supportsInterface(bytes4)": {
        "details": "See {IERC165-supportsInterface}."
      }
    },
    "version": 1
  },
  "userdoc": {
    "kind": "user",
    "methods": {},
    "version": 1
  },
  "storageLayout": {
    "storage": [
      {
        "astId": 24,
        "contract": "src/contracts/adapters/CamelotAdapter.sol:CamelotAdapter",
        "label": "_roles",
        "offset": 0,
        "slot": "0",
        "type": "t_mapping(t_bytes32,t_struct(RoleData)19_storage)"
      },
      {
        "astId": 1451,
        "contract": "src/contracts/adapters/CamelotAdapter.sol:CamelotAdapter",
        "label": "swapGasEstimate",
        "offset": 0,
        "slot": "1",
        "type": "t_uint256"
      },
      {
        "astId": 1453,
        "contract": "src/contracts/adapters/CamelotAdapter.sol:CamelotAdapter",
        "label": "name",
        "offset": 0,
        "slot": "2",
        "type": "t_string_storage"
      },
      {
        "astId": 5026,
        "contract": "src/contracts/adapters/CamelotAdapter.sol:CamelotAdapter",
        "label": "referrer",
        "offset": 0,
        "slot": "3",
        "type": "t_address"
      }
    ],
    "types": {
      "t_address": {
        "encoding": "inplace",
        "label": "address",
        "numberOfBytes": "20"
      },
      "t_bool": {
        "encoding": "inplace",
        "label": "bool",
        "numberOfBytes": "1"
      },
      "t_bytes32": {
        "encoding": "inplace",
        "label": "bytes32",
        "numberOfBytes": "32"
      },
      "t_mapping(t_address,t_bool)": {
        "encoding": "mapping",
        "key": "t_address",
        "label": "mapping(address => bool)",
        "numberOfBytes": "32",
        "value": "t_bool"
      },
      "t_mapping(t_bytes32,t_struct(RoleData)19_storage)": {
        "encoding": "mapping",
        "key": "t_bytes32",
        "label": "mapping(bytes32 => struct AccessControl.RoleData)",
        "numberOfBytes": "32",
        "value": "t_struct(RoleData)19_storage"
      },
      "t_string_storage": {
        "encoding": "bytes",
        "label": "string",
        "numberOfBytes": "32"
      },
      "t_struct(RoleData)19_storage": {
        "encoding": "inplace",
        "label": "struct AccessControl.RoleData",
        "members": [
          {
            "astId": 16,
            "contract": "src/contracts/adapters/CamelotAdapter.sol:CamelotAdapter",
            "label": "members",
            "offset": 0,
            "slot": "0",
            "type": "t_mapping(t_address,t_bool)"
          },
          {
            "astId": 18,
            "contract": "src/contracts/adapters/CamelotAdapter.sol:CamelotAdapter",
            "label": "adminRole",
            "offset": 0,
            "slot": "1",
            "type": "t_bytes32"
          }
        ],
        "numberOfBytes": "64"
      },
      "t_uint256": {
        "encoding": "inplace",
        "label": "uint256",
        "numberOfBytes": "32"
      }
    }
  }
}