{
  "address": "0xd8F5aBA3Ee8E3B27633E06b43f459f5bCE516Ab6",
  "abi": [
    {
      "inputs": [
        {
          "internalType": "address[]",
          "name": "_adapters",
          "type": "address[]"
        },
        {
          "internalType": "address[]",
          "name": "_trustedTokens",
          "type": "address[]"
        },
        {
          "internalType": "address",
          "name": "_feeClaimer",
          "type": "address"
        },
        {
          "internalType": "address",
          "name": "_wrapped_native",
          "type": "address"
        }
      ],
      "stateMutability": "nonpayable",
      "type": "constructor"
    },
    {
      "anonymous": false,
      "inputs": [
        {
          "indexed": true,
          "internalType": "address",
          "name": "_asset",
          "type": "address"
        },
        {
          "indexed": false,
          "internalType": "uint256",
          "name": "amount",
          "type": "uint256"
        }
      ],
      "name": "Recovered",
      "type": "event"
    },
    {
      "anonymous": false,
      "inputs": [
        {
          "indexed": true,
          "internalType": "bytes32",
          "name": "role",
          "type": "bytes32"
        },
        {
          "indexed": true,
          "internalType": "bytes32",
          "name": "previousAdminRole",
          "type": "bytes32"
        },
        {
          "indexed": true,
          "internalType": "bytes32",
          "name": "newAdminRole",
          "type": "bytes32"
        }
      ],
      "name": "RoleAdminChanged",
      "type": "event"
    },
    {
      "anonymous": false,
      "inputs": [
        {
          "indexed": true,
          "internalType": "bytes32",
          "name": "role",
          "type": "bytes32"
        },
        {
          "indexed": true,
          "internalType": "address",
          "name": "account",
          "type": "address"
        },
        {
          "indexed": true,
          "internalType": "address",
          "name": "sender",
          "type": "address"
        }
      ],
      "name": "RoleGranted",
      "type": "event"
    },
    {
      "anonymous": false,
      "inputs": [
        {
          "indexed": true,
          "internalType": "bytes32",
          "name": "role",
          "type": "bytes32"
        },
        {
          "indexed": true,
          "internalType": "address",
          "name": "account",
          "type": "address"
        },
        {
          "indexed": true,
          "internalType": "address",
          "name": "sender",
          "type": "address"
        }
      ],
      "name": "RoleRevoked",
      "type": "event"
    },
    {
      "anonymous": false,
      "inputs": [
        {
          "indexed": false,
          "internalType": "address[]",
          "name": "_newAdapters",
          "type": "address[]"
        }
      ],
      "name": "UpdatedAdapters",
      "type": "event"
    },
    {
      "anonymous": false,
      "inputs": [
        {
          "indexed": false,
          "internalType": "address",
          "name": "_oldFeeClaimer",
          "type": "address"
        },
        {
          "indexed": false,
          "internalType": "address",
          "name": "_newFeeClaimer",
          "type": "address"
        }
      ],
      "name": "UpdatedFeeClaimer",
      "type": "event"
    },
    {
      "anonymous": false,
      "inputs": [
        {
          "indexed": false,
          "internalType": "uint256",
          "name": "_oldMinFee",
          "type": "uint256"
        },
        {
          "indexed": false,
          "internalType": "uint256",
          "name": "_newMinFee",
          "type": "uint256"
        }
      ],
      "name": "UpdatedMinFee",
      "type": "event"
    },
    {
      "anonymous": false,
      "inputs": [
        {
          "indexed": false,
          "internalType": "address[]",
          "name": "_newTrustedTokens",
          "type": "address[]"
        }
      ],
      "name": "UpdatedTrustedTokens",
      "type": "event"
    },
    {
      "anonymous": false,
      "inputs": [
        {
          "indexed": true,
          "internalType": "address",
          "name": "_tokenIn",
          "type": "address"
        },
        {
          "indexed": true,
          "internalType": "address",
          "name": "_tokenOut",
          "type": "address"
        },
        {
          "indexed": false,
          "internalType": "uint256",
          "name": "_amountIn",
          "type": "uint256"
        },
        {
          "indexed": false,
          "internalType": "uint256",
          "name": "_amountOut",
          "type": "uint256"
        }
      ],
      "name": "YakSwap",
      "type": "event"
    },
    {
      "inputs": [
        {
          "internalType": "uint256",
          "name": "",
          "type": "uint256"
        }
      ],
      "name": "ADAPTERS",
      "outputs": [
        {
          "internalType": "address",
          "name": "",
          "type": "address"
        }
      ],
      "stateMutability": "view",
      "type": "function"
    },
    {
      "inputs": [],
      "name": "DEFAULT_ADMIN_ROLE",
      "outputs": [
        {
          "internalType": "bytes32",
          "name": "",
          "type": "bytes32"
        }
      ],
      "stateMutability": "view",
      "type": "function"
    },
    {
      "inputs": [],
      "name": "FEE_CLAIMER",
      "outputs": [
        {
          "internalType": "address",
          "name": "",
          "type": "address"
        }
      ],
      "stateMutability": "view",
      "type": "function"
    },
    {
      "inputs": [],
      "name": "FEE_DENOMINATOR",
      "outputs": [
        {
          "internalType": "uint256",
          "name": "",
          "type": "uint256"
        }
      ],
      "stateMutability": "view",
      "type": "function"
    },
    {
      "inputs": [],
      "name": "MAINTAINER_ROLE",
      "outputs": [
        {
          "internalType": "bytes32",
          "name": "",
          "type": "bytes32"
        }
      ],
      "stateMutability": "view",
      "type": "function"
    },
    {
      "inputs": [],
      "name": "MIN_FEE",
      "outputs": [
        {
          "internalType": "uint256",
          "name": "",
          "type": "uint256"
        }
      ],
      "stateMutability": "view",
      "type": "function"
    },
    {
      "inputs": [],
      "name": "NAME",
      "outputs": [
        {
          "internalType": "string",
          "name": "",
          "type": "string"
        }
      ],
      "stateMutability": "view",
      "type": "function"
    },
    {
      "inputs": [],
      "name": "NATIVE",
      "outputs": [
        {
          "internalType": "address",
          "name": "",
          "type": "address"
        }
      ],
      "stateMutability": "view",
      "type": "function"
    },
    {
      "inputs": [
        {
          "internalType": "uint256",
          "name": "",
          "type": "uint256"
        }
      ],
      "name": "TRUSTED_TOKENS",
      "outputs": [
        {
          "internalType": "address",
          "name": "",
          "type": "address"
        }
      ],
      "stateMutability": "view",
      "type": "function"
    },
    {
      "inputs": [],
      "name": "WNATIVE",
      "outputs": [
        {
          "internalType": "address",
          "name": "",
          "type": "address"
        }
      ],
      "stateMutability": "view",
      "type": "function"
    },
    {
      "inputs": [],
      "name": "adaptersCount",
      "outputs": [
        {
          "internalType": "uint256",
          "name": "",
          "type": "uint256"
        }
      ],
      "stateMutability": "view",
      "type": "function"
    },
    {
      "inputs": [
        {
          "internalType": "address",
          "name": "addedMaintainer",
          "type": "address"
        }
      ],
      "name": "addMaintainer",
      "outputs": [],
      "stateMutability": "nonpayable",
      "type": "function"
    },
    {
      "inputs": [
        {
          "internalType": "uint256",
          "name": "_amountIn",
          "type": "uint256"
        },
        {
          "internalType": "address",
          "name": "_tokenIn",
          "type": "address"
        },
        {
          "internalType": "address",
          "name": "_tokenOut",
          "type": "address"
        },
        {
          "internalType": "uint256",
          "name": "_maxSteps",
          "type": "uint256"
        }
      ],
      "name": "findBestPath",
      "outputs": [
        {
          "components": [
            {
              "internalType": "uint256[]",
              "name": "amounts",
              "type": "uint256[]"
            },
            {
              "internalType": "address[]",
              "name": "adapters",
              "type": "address[]"
            },
            {
              "internalType": "address[]",
              "name": "path",
              "type": "address[]"
            },
            {
              "internalType": "uint256",
              "name": "gasEstimate",
              "type": "uint256"
            }
          ],
          "internalType": "struct FormattedOffer",
          "name": "",
          "type": "tuple"
        }
      ],
      "stateMutability": "view",
      "type": "function"
    },
    {
      "inputs": [
        {
          "internalType": "uint256",
          "name": "_amountIn",
          "type": "uint256"
        },
        {
          "internalType": "address",
          "name": "_tokenIn",
          "type": "address"
        },
        {
          "internalType": "address",
          "name": "_tokenOut",
          "type": "address"
        },
        {
          "internalType": "uint256",
          "name": "_maxSteps",
          "type": "uint256"
        },
        {
          "internalType": "uint256",
          "name": "_gasPrice",
          "type": "uint256"
        }
      ],
      "name": "findBestPathWithGas",
      "outputs": [
        {
          "components": [
            {
              "internalType": "uint256[]",
              "name": "amounts",
              "type": "uint256[]"
            },
            {
              "internalType": "address[]",
              "name": "adapters",
              "type": "address[]"
            },
            {
              "internalType": "address[]",
              "name": "path",
              "type": "address[]"
            },
            {
              "internalType": "uint256",
              "name": "gasEstimate",
              "type": "uint256"
            }
          ],
          "internalType": "struct FormattedOffer",
          "name": "",
          "type": "tuple"
        }
      ],
      "stateMutability": "view",
      "type": "function"
    },
    {
      "inputs": [
        {
          "internalType": "bytes32",
          "name": "role",
          "type": "bytes32"
        }
      ],
      "name": "getRoleAdmin",
      "outputs": [
        {
          "internalType": "bytes32",
          "name": "",
          "type": "bytes32"
        }
      ],
      "stateMutability": "view",
      "type": "function"
    },
    {
      "inputs": [
        {
          "internalType": "bytes32",
          "name": "role",
          "type": "bytes32"
        },
        {
          "internalType": "address",
          "name": "account",
          "type": "address"
        }
      ],
      "name": "grantRole",
      "outputs": [],
      "stateMutability": "nonpayable",
      "type": "function"
    },
    {
      "inputs": [
        {
          "internalType": "bytes32",
          "name": "role",
          "type": "bytes32"
        },
        {
          "internalType": "address",
          "name": "account",
          "type": "address"
        }
      ],
      "name": "hasRole",
      "outputs": [
        {
          "internalType": "bool",
          "name": "",
          "type": "bool"
        }
      ],
      "stateMutability": "view",
      "type": "function"
    },
    {
      "inputs": [
        {
          "internalType": "uint256",
          "name": "_amountIn",
          "type": "uint256"
        },
        {
          "internalType": "address",
          "name": "_tokenIn",
          "type": "address"
        },
        {
          "internalType": "address",
          "name": "_tokenOut",
          "type": "address"
        },
        {
          "internalType": "uint8",
          "name": "_index",
          "type": "uint8"
        }
      ],
      "name": "queryAdapter",
      "outputs": [
        {
          "internalType": "uint256",
          "name": "",
          "type": "uint256"
        }
      ],
      "stateMutability": "view",
      "type": "function"
    },
    {
      "inputs": [
        {
          "internalType": "uint256",
          "name": "_amountIn",
          "type": "uint256"
        },
        {
          "internalType": "address",
          "name": "_tokenIn",
          "type": "address"
        },
        {
          "internalType": "address",
          "name": "_tokenOut",
          "type": "address"
        },
        {
          "internalType": "uint8[]",
          "name": "_options",
          "type": "uint8[]"
        }
      ],
      "name": "queryNoSplit",
      "outputs": [
        {
          "components": [
            {
              "internalType": "address",
              "name": "adapter",
              "type": "address"
            },
            {
              "internalType": "address",
              "name": "tokenIn",
              "type": "address"
            },
            {
              "internalType": "address",
              "name": "tokenOut",
              "type": "address"
            },
            {
              "internalType": "uint256",
              "name": "amountOut",
              "type": "uint256"
            }
          ],
          "internalType": "struct Query",
          "name": "",
          "type": "tuple"
        }
      ],
      "stateMutability": "view",
      "type": "function"
    },
    {
      "inputs": [
        {
          "internalType": "uint256",
          "name": "_amountIn",
          "type": "uint256"
        },
        {
          "internalType": "address",
          "name": "_tokenIn",
          "type": "address"
        },
        {
          "internalType": "address",
          "name": "_tokenOut",
          "type": "address"
        }
      ],
      "name": "queryNoSplit",
      "outputs": [
        {
          "components": [
            {
              "internalType": "address",
              "name": "adapter",
              "type": "address"
            },
            {
              "internalType": "address",
              "name": "tokenIn",
              "type": "address"
            },
            {
              "internalType": "address",
              "name": "tokenOut",
              "type": "address"
            },
            {
              "internalType": "uint256",
              "name": "amountOut",
              "type": "uint256"
            }
          ],
          "internalType": "struct Query",
          "name": "",
          "type": "tuple"
        }
      ],
      "stateMutability": "view",
      "type": "function"
    },
    {
      "inputs": [
        {
          "internalType": "address",
          "name": "_tokenAddress",
          "type": "address"
        },
        {
          "internalType": "uint256",
          "name": "_tokenAmount",
          "type": "uint256"
        }
      ],
      "name": "recoverERC20",
      "outputs": [],
      "stateMutability": "nonpayable",
      "type": "function"
    },
    {
      "inputs": [
        {
          "internalType": "uint256",
          "name": "_amount",
          "type": "uint256"
        }
      ],
      "name": "recoverNative",
      "outputs": [],
      "stateMutability": "nonpayable",
      "type": "function"
    },
    {
      "inputs": [
        {
          "internalType": "address",
          "name": "removedMaintainer",
          "type": "address"
        }
      ],
      "name": "removeMaintainer",
      "outputs": [],
      "stateMutability": "nonpayable",
      "type": "function"
    },
    {
      "inputs": [
        {
          "internalType": "bytes32",
          "name": "role",
          "type": "bytes32"
        },
        {
          "internalType": "address",
          "name": "account",
          "type": "address"
        }
      ],
      "name": "renounceRole",
      "outputs": [],
      "stateMutability": "nonpayable",
      "type": "function"
    },
    {
      "inputs": [
        {
          "internalType": "bytes32",
          "name": "role",
          "type": "bytes32"
        }
      ],
      "name": "renounceRole",
      "outputs": [],
      "stateMutability": "nonpayable",
      "type": "function"
    },
    {
      "inputs": [
        {
          "internalType": "bytes32",
          "name": "role",
          "type": "bytes32"
        },
        {
          "internalType": "address",
          "name": "account",
          "type": "address"
        }
      ],
      "name": "revokeRole",
      "outputs": [],
      "stateMutability": "nonpayable",
      "type": "function"
    },
    {
      "inputs": [
        {
          "internalType": "address[]",
          "name": "_adapters",
          "type": "address[]"
        }
      ],
      "name": "setAdapters",
      "outputs": [],
      "stateMutability": "nonpayable",
      "type": "function"
    },
    {
      "inputs": [
        {
          "internalType": "address",
          "name": "_wnative",
          "type": "address"
        }
      ],
      "name": "setAllowanceForWrapping",
      "outputs": [],
      "stateMutability": "nonpayable",
      "type": "function"
    },
    {
      "inputs": [
        {
          "internalType": "address",
          "name": "_claimer",
          "type": "address"
        }
      ],
      "name": "setFeeClaimer",
      "outputs": [],
      "stateMutability": "nonpayable",
      "type": "function"
    },
    {
      "inputs": [
        {
          "internalType": "uint256",
          "name": "_fee",
          "type": "uint256"
        }
      ],
      "name": "setMinFee",
      "outputs": [],
      "stateMutability": "nonpayable",
      "type": "function"
    },
    {
      "inputs": [
        {
          "internalType": "address[]",
          "name": "_trustedTokens",
          "type": "address[]"
        }
      ],
      "name": "setTrustedTokens",
      "outputs": [],
      "stateMutability": "nonpayable",
      "type": "function"
    },
    {
      "inputs": [
        {
          "internalType": "bytes4",
          "name": "interfaceId",
          "type": "bytes4"
        }
      ],
      "name": "supportsInterface",
      "outputs": [
        {
          "internalType": "bool",
          "name": "",
          "type": "bool"
        }
      ],
      "stateMutability": "view",
      "type": "function"
    },
    {
      "inputs": [
        {
          "components": [
            {
              "internalType": "uint256",
              "name": "amountIn",
              "type": "uint256"
            },
            {
              "internalType": "uint256",
              "name": "amountOut",
              "type": "uint256"
            },
            {
              "internalType": "address[]",
              "name": "path",
              "type": "address[]"
            },
            {
              "internalType": "address[]",
              "name": "adapters",
              "type": "address[]"
            }
          ],
          "internalType": "struct Trade",
          "name": "_trade",
          "type": "tuple"
        },
        {
          "internalType": "address",
          "name": "_to",
          "type": "address"
        },
        {
          "internalType": "uint256",
          "name": "_fee",
          "type": "uint256"
        }
      ],
      "name": "swapNoSplit",
      "outputs": [],
      "stateMutability": "nonpayable",
      "type": "function"
    },
    {
      "inputs": [
        {
          "components": [
            {
              "internalType": "uint256",
              "name": "amountIn",
              "type": "uint256"
            },
            {
              "internalType": "uint256",
              "name": "amountOut",
              "type": "uint256"
            },
            {
              "internalType": "address[]",
              "name": "path",
              "type": "address[]"
            },
            {
              "internalType": "address[]",
              "name": "adapters",
              "type": "address[]"
            }
          ],
          "internalType": "struct Trade",
          "name": "_trade",
          "type": "tuple"
        },
        {
          "internalType": "address",
          "name": "_to",
          "type": "address"
        },
        {
          "internalType": "uint256",
          "name": "_fee",
          "type": "uint256"
        }
      ],
      "name": "swapNoSplitFromAVAX",
      "outputs": [],
      "stateMutability": "payable",
      "type": "function"
    },
    {
      "inputs": [
        {
          "components": [
            {
              "internalType": "uint256",
              "name": "amountIn",
              "type": "uint256"
            },
            {
              "internalType": "uint256",
              "name": "amountOut",
              "type": "uint256"
            },
            {
              "internalType": "address[]",
              "name": "path",
              "type": "address[]"
            },
            {
              "internalType": "address[]",
              "name": "adapters",
              "type": "address[]"
            }
          ],
          "internalType": "struct Trade",
          "name": "_trade",
          "type": "tuple"
        },
        {
          "internalType": "address",
          "name": "_to",
          "type": "address"
        },
        {
          "internalType": "uint256",
          "name": "_fee",
          "type": "uint256"
        }
      ],
      "name": "swapNoSplitToAVAX",
      "outputs": [],
      "stateMutability": "nonpayable",
      "type": "function"
    },
    {
      "inputs": [
        {
          "components": [
            {
              "internalType": "uint256",
              "name": "amountIn",
              "type": "uint256"
            },
            {
              "internalType": "uint256",
              "name": "amountOut",
              "type": "uint256"
            },
            {
              "internalType": "address[]",
              "name": "path",
              "type": "address[]"
            },
            {
              "internalType": "address[]",
              "name": "adapters",
              "type": "address[]"
            }
          ],
          "internalType": "struct Trade",
          "name": "_trade",
          "type": "tuple"
        },
        {
          "internalType": "address",
          "name": "_to",
          "type": "address"
        },
        {
          "internalType": "uint256",
          "name": "_fee",
          "type": "uint256"
        },
        {
          "internalType": "uint256",
          "name": "_deadline",
          "type": "uint256"
        },
        {
          "internalType": "uint8",
          "name": "_v",
          "type": "uint8"
        },
        {
          "internalType": "bytes32",
          "name": "_r",
          "type": "bytes32"
        },
        {
          "internalType": "bytes32",
          "name": "_s",
          "type": "bytes32"
        }
      ],
      "name": "swapNoSplitToAVAXWithPermit",
      "outputs": [],
      "stateMutability": "nonpayable",
      "type": "function"
    },
    {
      "inputs": [
        {
          "components": [
            {
              "internalType": "uint256",
              "name": "amountIn",
              "type": "uint256"
            },
            {
              "internalType": "uint256",
              "name": "amountOut",
              "type": "uint256"
            },
            {
              "internalType": "address[]",
              "name": "path",
              "type": "address[]"
            },
            {
              "internalType": "address[]",
              "name": "adapters",
              "type": "address[]"
            }
          ],
          "internalType": "struct Trade",
          "name": "_trade",
          "type": "tuple"
        },
        {
          "internalType": "address",
          "name": "_to",
          "type": "address"
        },
        {
          "internalType": "uint256",
          "name": "_fee",
          "type": "uint256"
        },
        {
          "internalType": "uint256",
          "name": "_deadline",
          "type": "uint256"
        },
        {
          "internalType": "uint8",
          "name": "_v",
          "type": "uint8"
        },
        {
          "internalType": "bytes32",
          "name": "_r",
          "type": "bytes32"
        },
        {
          "internalType": "bytes32",
          "name": "_s",
          "type": "bytes32"
        }
      ],
      "name": "swapNoSplitWithPermit",
      "outputs": [],
      "stateMutability": "nonpayable",
      "type": "function"
    },
    {
      "inputs": [
        {
          "internalType": "address",
          "name": "newOwner",
          "type": "address"
        }
      ],
      "name": "transferOwnership",
      "outputs": [],
      "stateMutability": "nonpayable",
      "type": "function"
    },
    {
      "inputs": [],
      "name": "trustedTokensCount",
      "outputs": [
        {
          "internalType": "uint256",
          "name": "",
          "type": "uint256"
        }
      ],
      "stateMutability": "view",
      "type": "function"
    },
    {
      "stateMutability": "payable",
      "type": "receive"
    }
  ],
  "transactionHash": "0xcf62f5d3586844c20454bd21ee4d43ac06c0e0a3638cb36502b5151ab19fd149",
  "args": [
    [
      "0x63125Bee18B0A9543F29316D563538F882EFD381",
      "0x49d3D3FAbB6a8167B7f5545E0dc53fBbe11D42A5",
      "0x273edfE70614809dB301d086052723A9f4d8Aa8f"
    ],
    [
      "0x82aF49447D8a07e3bd95BD0d56f35241523fBab1",
      "0x2f2a2543B76A4166549F7aaB2e75Bef0aefC5B0f",
      "0xaf88d065e77c8cC2239327C5EDb3A432268e5831",
      "0xFF970A61A04b1cA14834A43f5dE4533eBDDB5CC8",
      "0x912CE59144191C1204E64559FE8253a0e49E6548",
      "0xFd086bC7CD5C481DCC9C85ebE478A1C0b69FCbb9",
      "0xDA10009cBd5D07dd0CeCc66161FC93D7c9000da1"
    ],
    "0x1A267D3f9f5116dF6ae00A4aD698CdcF27b71920",
    "0x82aF49447D8a07e3bd95BD0d56f35241523fBab1"
  ],
  "solcInputHash": "879d2afbcdbb351edf1d701bd2f0c2cd",
  "bytecode": "0x60a060405260006001553480156200001657600080fd5b50604051620045383803806200453883398101604081905262000039916200083e565b3362000047600082620000ba565b620000737f339759585899103d2ace64958e37e18ccb0504652c81d4a1b8aa80fe2126ab9582620000ba565b506200007f81620000ca565b6200008a8362000164565b620000958262000226565b620000a084620002ff565b60601b6001600160601b03191660805250620009ad915050565b620000c68282620003bc565b5050565b336000818152600080516020620044f8833981519152602052604090205460ff166200013d5760405162461bcd60e51b815260206004820152602860248201526000805160206200451883398151915260448201526734b73a30b4b732b960c11b60648201526084015b60405180910390fd5b620000c682600019846001600160a01b03166200045c60201b62001af1179092919060201c565b336000818152600080516020620044f8833981519152602052604090205460ff16620001d35760405162461bcd60e51b815260206004820152602860248201526000805160206200451883398151915260448201526734b73a30b4b732b960c11b606482015260840162000134565b7f658ff1688002926d8f426cb10c052ec29003f50042df9652d8613484c1a586478260405162000204919062000948565b60405180910390a1815162000221906003906020850190620006f0565b505050565b336000818152600080516020620044f8833981519152602052604090205460ff16620002955760405162461bcd60e51b815260206004820152602860248201526000805160206200451883398151915260448201526734b73a30b4b732b960c11b606482015260840162000134565b600254604080516001600160a01b03928316815291841660208301527fb2c853ac4d80d18d058c43d8018d077a036e542a79acae1647f5ad2a8c76f4e2910160405180910390a150600280546001600160a01b0319166001600160a01b0392909216919091179055565b336000818152600080516020620044f8833981519152602052604090205460ff166200036e5760405162461bcd60e51b815260206004820152602860248201526000805160206200451883398151915260448201526734b73a30b4b732b960c11b606482015260840162000134565b7febf7325f48e05e5e38809c69f8b02a7c907ed31d8768e6c2d841b1296a9225fe826040516200039f919062000948565b60405180910390a1815162000221906004906020850190620006f0565b6000828152602081815260408083206001600160a01b038516845290915290205460ff16620000c6576000828152602081815260408083206001600160a01b03851684529091529020805460ff19166001179055620004183390565b6001600160a01b0316816001600160a01b0316837f2f8788117e7eff1d82e926ec794901d17c78024a50270940304540a733656f0d60405160405180910390a45050565b801580620004ea5750604051636eb1769f60e11b81523060048201526001600160a01b03838116602483015284169063dd62ed3e9060440160206040518083038186803b158015620004ad57600080fd5b505afa158015620004c2573d6000803e3d6000fd5b505050506040513d601f19601f82011682018060405250810190620004e89190620008f3565b155b6200055e5760405162461bcd60e51b815260206004820152603660248201527f5361666545524332303a20617070726f76652066726f6d206e6f6e2d7a65726f60448201527f20746f206e6f6e2d7a65726f20616c6c6f77616e636500000000000000000000606482015260840162000134565b604080516001600160a01b038416602482015260448082018490528251808303909101815260649091019091526020810180516001600160e01b0390811663095ea7b360e01b1790915262000221918591620005b616565b600080836001600160a01b031683604051620005d391906200090c565b6000604051808303816000865af19150503d806000811462000612576040519150601f19603f3d011682016040523d82523d6000602084013e62000617565b606091505b5091509150816200066b5760405162461bcd60e51b815260206004820181905260248201527f5361666545524332303a206c6f772d6c6576656c2063616c6c206661696c6564604482015260640162000134565b805115620006ea5780806020019051810190620006899190620008ca565b620006ea5760405162461bcd60e51b815260206004820152602a60248201527f5361666545524332303a204552433230206f7065726174696f6e20646964206e6044820152691bdd081cdd58d8d9595960b21b606482015260840162000134565b50505050565b82805482825590600052602060002090810192821562000748579160200282015b828111156200074857825182546001600160a01b0319166001600160a01b0390911617825560209092019160019091019062000711565b50620007569291506200075a565b5090565b5b808211156200075657600081556001016200075b565b80516001600160a01b03811681146200078957600080fd5b919050565b600082601f8301126200079f578081fd5b815160206001600160401b0380831115620007be57620007be62000997565b8260051b604051601f19603f83011681018181108482111715620007e657620007e662000997565b6040528481528381019250868401828801850189101562000805578687fd5b8692505b8583101562000832576200081d8162000771565b84529284019260019290920191840162000809565b50979650505050505050565b6000806000806080858703121562000854578384fd5b84516001600160401b03808211156200086b578586fd5b62000879888389016200078e565b955060208701519150808211156200088f578485fd5b506200089e878288016200078e565b935050620008af6040860162000771565b9150620008bf6060860162000771565b905092959194509250565b600060208284031215620008dc578081fd5b81518015158114620008ec578182fd5b9392505050565b60006020828403121562000905578081fd5b5051919050565b60008251815b818110156200092e576020818601810151858301520162000912565b818111156200093d5782828501525b509190910192915050565b6020808252825182820181905260009190848201906040850190845b818110156200098b5783516001600160a01b03168352928401929184019160010162000964565b50909695505050505050565b634e487b7160e01b600052604160045260246000fd5b60805160601c613b09620009ef600039600081816106df015281816118c3015281816119fe01528181611cfa0152818161290f01526129e00152613b096000f3fe6080604052600436106102a35760003560e01c80638bb9c5bf1161016e578063c8a3a5c6116100cb578063dede7f151161007f578063f2fde38b11610064578063f2fde38b146107f7578063f874225414610817578063fe38c5e61461084b57600080fd5b8063dede7f15146107b7578063f0350382146107d757600080fd5b8063d73792a9116100b0578063d73792a914610761578063d8baf7cf14610777578063dd8544b31461079757600080fd5b8063c8a3a5c614610721578063d547741f1461074157600080fd5b8063a217fddf11610122578063aede369311610107578063aede3693146106ad578063b381cf40146106cd578063c3accd481461070157600080fd5b8063a217fddf14610642578063a3f4df7e1461065757600080fd5b806392f5d88a1161015357806392f5d88a146105ad578063952e90121461060d578063a0cf0aea1461062d57600080fd5b80638bb9c5bf1461054957806391d148541461056957600080fd5b80634c09cf4e1161021c57806376c7a3c7116101d05780637c7a561b116101b55780637c7a561b146104f4578063809356aa146105095780638980f11f1461052957600080fd5b806376c7a3c7146104c957806376ebe69c146104df57600080fd5b80636b453c1f116102015780636b453c1f146104695780636bf2df861461048957806375d19947146104a957600080fd5b80634c09cf4e1461042957806352a52ab01461044957600080fd5b8063248a9ca31161027357806331ac99201161025857806331ac9920146103c957806336568abe146103e95780633a9a40811461040957600080fd5b8063248a9ca31461036b5780632f2ff15d146103a957600080fd5b8062b99e36146102af57806301ffc9a7146102ec578063061b15e71461031c5780631e189dc21461034957600080fd5b366102aa57005b600080fd5b3480156102bb57600080fd5b506002546102cf906001600160a01b031681565b6040516001600160a01b0390911681526020015b60405180910390f35b3480156102f857600080fd5b5061030c61030736600461349b565b61085e565b60405190151581526020016102e3565b34801561032857600080fd5b5061033c6103373660046136ca565b6108c7565b6040516102e391906138d2565b34801561035557600080fd5b50610369610364366004613518565b6109d2565b005b34801561037757600080fd5b5061039b610386366004613458565b60009081526020819052604090206001015490565b6040519081526020016102e3565b3480156103b557600080fd5b506103696103c4366004613470565b610aad565b3480156103d557600080fd5b506103696103e4366004613458565b610ad7565b3480156103f557600080fd5b50610369610404366004613470565b610ba8565b34801561041557600080fd5b50610369610424366004613371565b610c34565b34801561043557600080fd5b5061033c610444366004613687565b610d0d565b34801561045557600080fd5b506102cf610464366004613458565b610df6565b34801561047557600080fd5b5061036961048436600461332e565b610e20565b34801561049557600080fd5b506103696104a43660046134c3565b610e4d565b3480156104b557600080fd5b506103696104c4366004613518565b610e5f565b3480156104d557600080fd5b5061039b60015481565b3480156104eb57600080fd5b5060035461039b565b34801561050057600080fd5b5060045461039b565b34801561051557600080fd5b5061039b610524366004613717565b610f31565b34801561053557600080fd5b50610369610544366004613348565b610ffa565b34801561055557600080fd5b50610369610564366004613458565b611135565b34801561057557600080fd5b5061030c610584366004613470565b6000918252602082815260408084206001600160a01b0393909316845291905290205460ff1690565b3480156105b957600080fd5b506105cd6105c83660046135ee565b611140565b6040805182516001600160a01b039081168252602080850151821690830152838301511691810191909152606091820151918101919091526080016102e3565b34801561061957600080fd5b506102cf610628366004613458565b611303565b34801561063957600080fd5b506102cf600081565b34801561064e57600080fd5b5061039b600081565b34801561066357600080fd5b506106a06040518060400160405280600981526020017f59616b526f75746572000000000000000000000000000000000000000000000081525081565b6040516102e3919061389f565b3480156106b957600080fd5b506103696106c8366004613458565b611313565b3480156106d957600080fd5b506102cf7f000000000000000000000000000000000000000000000000000000000000000081565b34801561070d57600080fd5b5061036961071c36600461332e565b61145a565b34801561072d57600080fd5b5061036961073c366004613371565b611560565b34801561074d57600080fd5b5061036961075c366004613470565b611639565b34801561076d57600080fd5b5061039b61271081565b34801561078357600080fd5b5061036961079236600461332e565b61165e565b3480156107a357600080fd5b506103696107b236600461332e565b611688565b3480156107c357600080fd5b506105cd6107d23660046135b3565b61172d565b3480156107e357600080fd5b506103696107f23660046134c3565b6118b9565b34801561080357600080fd5b5061036961081236600461332e565b6119dd565b34801561082357600080fd5b5061039b7f339759585899103d2ace64958e37e18ccb0504652c81d4a1b8aa80fe2126ab9581565b6103696108593660046134c3565b6119f4565b60006001600160e01b031982167f7965db0b0000000000000000000000000000000000000000000000000000000014806108c157507f01ffc9a7000000000000000000000000000000000000000000000000000000006001600160e01b03198316145b92915050565b6108f26040518060800160405280606081526020016060815260200160608152602001600081525090565b6000831180156109025750600583105b6109535760405162461bcd60e51b815260206004820152601c60248201527f59616b526f757465723a20496e76616c6964206d61782d73746570730000000060448201526064015b60405180910390fd5b600061095f8787611c96565b9050600080841161097157600061097b565b61097b8487611ce9565b905061098b888888888686611d8c565b9150816020015151600014156109bd576040805160208082018352600080835291855282519081018352908152908301525b6109c68261211f565b98975050505050505050565b6109df604088018861396c565b60008181106109fe57634e487b7160e01b600052603260045260246000fd5b9050602002016020810190610a13919061332e565b60405163d505accf60e01b8152336004820152306024820152883560448201526064810186905260ff8516608482015260a4810184905260c481018390526001600160a01b03919091169063d505accf9060e401600060405180830381600087803b158015610a8157600080fd5b505af1158015610a95573d6000803e3d6000fd5b50505050610aa48787876118b9565b50505050505050565b600082815260208190526040902060010154610ac88161219a565b610ad283836121a4565b505050565b3360008181527fa54247010af6b3693b80aceddfad12e077c5de3571e6243fada502635f0d7d39602052604090205460ff16610b665760405162461bcd60e51b815260206004820152602860248201527f4d61696e7461696e61626c653a2043616c6c6572206973206e6f742061206d6160448201526734b73a30b4b732b960c11b606482015260840161094a565b60015460408051918252602082018490527f4bb8a6184424e4bb853a4836042f5a726e4e710873989bfc6abdab19966f5b70910160405180910390a150600155565b6001600160a01b0381163314610c265760405162461bcd60e51b815260206004820152602f60248201527f416363657373436f6e74726f6c3a2063616e206f6e6c792072656e6f756e636560448201527f20726f6c657320666f722073656c660000000000000000000000000000000000606482015260840161094a565b610c308282612242565b5050565b3360008181527fa54247010af6b3693b80aceddfad12e077c5de3571e6243fada502635f0d7d39602052604090205460ff16610cc35760405162461bcd60e51b815260206004820152602860248201527f4d61696e7461696e61626c653a2043616c6c6572206973206e6f742061206d6160448201526734b73a30b4b732b960c11b606482015260840161094a565b7febf7325f48e05e5e38809c69f8b02a7c907ed31d8768e6c2d841b1296a9225fe82604051610cf2919061388c565b60405180910390a18151610ad2906004906020850190613269565b610d386040518060800160405280606081526020016060815260200160608152602001600081525090565b600082118015610d485750600582105b610d945760405162461bcd60e51b815260206004820152601c60248201527f59616b526f757465723a20496e76616c6964206d61782d737465707300000000604482015260640161094a565b6000610da08686611c96565b9050610db186868686856000611d8c565b905080602001515160001415610de3576040805160208082018352600080835291845282519081018352908152908201525b610dec8161211f565b9695505050505050565b60038181548110610e0657600080fd5b6000918252602090912001546001600160a01b0316905081565b610e4a7f339759585899103d2ace64958e37e18ccb0504652c81d4a1b8aa80fe2126ab9582610aad565b50565b610e59833384846122c1565b50505050565b610e6c604088018861396c565b6000818110610e8b57634e487b7160e01b600052603260045260246000fd5b9050602002016020810190610ea0919061332e565b60405163d505accf60e01b8152336004820152306024820152883560448201526064810186905260ff8516608482015260a4810184905260c481018390526001600160a01b03919091169063d505accf9060e401600060405180830381600087803b158015610f0e57600080fd5b505af1158015610f22573d6000803e3d6000fd5b50505050610aa4878787610e4d565b60008060048360ff1681548110610f5857634e487b7160e01b600052603260045260246000fd5b60009182526020822001546040516377ccc49d60e11b8152600481018990526001600160a01b03888116602483015287811660448301529091169250829063ef99893a9060640160206040518083038186803b158015610fb757600080fd5b505afa158015610fcb573d6000803e3d6000fd5b505050506040513d601f19601f82011682018060405250810190610fef919061359b565b979650505050505050565b3360008181527fa54247010af6b3693b80aceddfad12e077c5de3571e6243fada502635f0d7d39602052604090205460ff166110895760405162461bcd60e51b815260206004820152602860248201527f4d61696e7461696e61626c653a2043616c6c6572206973206e6f742061206d6160448201526734b73a30b4b732b960c11b606482015260840161094a565b600082116110d95760405162461bcd60e51b815260206004820152601260248201527f4e6f7468696e6720746f207265636f7665720000000000000000000000000000604482015260640161094a565b6110ed6001600160a01b0384163384612897565b826001600160a01b03167f8c1256b8896378cd5044f80c202f9772b9d77dc85c8a6eb51967210b09bfaa288360405161112891815260200190565b60405180910390a2505050565b33610c308282610ba8565b60408051608081018252600080825260208201819052918101829052606081019190915260408051608081018252600080825260208201819052918101829052606081019190915260005b60ff81168411156112f8576000600486868460ff168181106111bd57634e487b7160e01b600052603260045260246000fd5b90506020020160208101906111d29190613763565b60ff16815481106111f357634e487b7160e01b600052603260045260246000fd5b60009182526020822001546040516377ccc49d60e11b8152600481018c90526001600160a01b038b811660248301528a811660448301529091169250829063ef99893a9060640160206040518083038186803b15801561125257600080fd5b505afa158015611266573d6000803e3d6000fd5b505050506040513d601f19601f8201168201806040525081019061128a919061359b565b905060ff8316158061129f5750836060015181115b156112e3576040518060800160405280836001600160a01b031681526020018a6001600160a01b03168152602001896001600160a01b031681526020018281525093505b505080806112f090613a87565b91505061118b565b509695505050505050565b60048181548110610e0657600080fd5b3360008181527fa54247010af6b3693b80aceddfad12e077c5de3571e6243fada502635f0d7d39602052604090205460ff166113a25760405162461bcd60e51b815260206004820152602860248201527f4d61696e7461696e61626c653a2043616c6c6572206973206e6f742061206d6160448201526734b73a30b4b732b960c11b606482015260840161094a565b600082116113f25760405162461bcd60e51b815260206004820152601260248201527f4e6f7468696e6720746f207265636f7665720000000000000000000000000000604482015260640161094a565b604051339083156108fc029084906000818181858888f1935050505015801561141f573d6000803e3d6000fd5b506040518281526000907f8c1256b8896378cd5044f80c202f9772b9d77dc85c8a6eb51967210b09bfaa289060200160405180910390a25050565b3360008181527fa54247010af6b3693b80aceddfad12e077c5de3571e6243fada502635f0d7d39602052604090205460ff166114e95760405162461bcd60e51b815260206004820152602860248201527f4d61696e7461696e61626c653a2043616c6c6572206973206e6f742061206d6160448201526734b73a30b4b732b960c11b606482015260840161094a565b600254604080516001600160a01b03928316815291841660208301527fb2c853ac4d80d18d058c43d8018d077a036e542a79acae1647f5ad2a8c76f4e2910160405180910390a1506002805473ffffffffffffffffffffffffffffffffffffffff19166001600160a01b0392909216919091179055565b3360008181527fa54247010af6b3693b80aceddfad12e077c5de3571e6243fada502635f0d7d39602052604090205460ff166115ef5760405162461bcd60e51b815260206004820152602860248201527f4d61696e7461696e61626c653a2043616c6c6572206973206e6f742061206d6160448201526734b73a30b4b732b960c11b606482015260840161094a565b7f658ff1688002926d8f426cb10c052ec29003f50042df9652d8613484c1a586478260405161161e919061388c565b60405180910390a18151610ad2906003906020850190613269565b6000828152602081905260409020600101546116548161219a565b610ad28383612242565b610e4a7f339759585899103d2ace64958e37e18ccb0504652c81d4a1b8aa80fe2126ab9582611639565b3360008181527fa54247010af6b3693b80aceddfad12e077c5de3571e6243fada502635f0d7d39602052604090205460ff166117175760405162461bcd60e51b815260206004820152602860248201527f4d61696e7461696e61626c653a2043616c6c6572206973206e6f742061206d6160448201526734b73a30b4b732b960c11b606482015260840161094a565b610c306001600160a01b03831683600019611af1565b60408051608081018252600080825260208201819052918101829052606081019190915260408051608081018252600080825260208201819052918101829052606081019190915260005b60045460ff821610156118b057600060048260ff16815481106117ab57634e487b7160e01b600052603260045260246000fd5b60009182526020822001546040516377ccc49d60e11b8152600481018a90526001600160a01b03898116602483015288811660448301529091169250829063ef99893a9060640160206040518083038186803b15801561180a57600080fd5b505afa15801561181e573d6000803e3d6000fd5b505050506040513d601f19601f82011682018060405250810190611842919061359b565b905060ff831615806118575750836060015181115b1561189b576040518060800160405280836001600160a01b03168152602001886001600160a01b03168152602001876001600160a01b031681526020018281525093505b505080806118a890613a87565b915050611778565b50949350505050565b6001600160a01b037f0000000000000000000000000000000000000000000000000000000000000000166118f0604085018561396c565b60016118ff604088018861396c565b61190a929150613a12565b81811061192757634e487b7160e01b600052603260045260246000fd5b905060200201602081019061193c919061332e565b6001600160a01b0316146119b85760405162461bcd60e51b815260206004820152602760248201527f59616b526f757465723a2050617468206e6565647320746f20656e642077697460448201527f6820574156415800000000000000000000000000000000000000000000000000606482015260840161094a565b60006119c6843330856122c1565b90506119d1816128e0565b610e5960008285612976565b336119e9600083610aad565b610c30600082610ba8565b6001600160a01b037f000000000000000000000000000000000000000000000000000000000000000016611a2b604085018561396c565b6000818110611a4a57634e487b7160e01b600052603260045260246000fd5b9050602002016020810190611a5f919061332e565b6001600160a01b031614611adb5760405162461bcd60e51b815260206004820152602960248201527f59616b526f757465723a2050617468206e6565647320746f20626567696e207760448201527f6974682057415641580000000000000000000000000000000000000000000000606482015260840161094a565b611ae583356129de565b610e59833084846122c1565b801580611b9357506040517fdd62ed3e0000000000000000000000000000000000000000000000000000000081523060048201526001600160a01b03838116602483015284169063dd62ed3e9060440160206040518083038186803b158015611b5957600080fd5b505afa158015611b6d573d6000803e3d6000fd5b505050506040513d601f19601f82011682018060405250810190611b91919061359b565b155b611c055760405162461bcd60e51b815260206004820152603660248201527f5361666545524332303a20617070726f76652066726f6d206e6f6e2d7a65726f60448201527f20746f206e6f6e2d7a65726f20616c6c6f77616e636500000000000000000000606482015260840161094a565b6040516001600160a01b038316602482015260448101829052610ad29084907f095ea7b300000000000000000000000000000000000000000000000000000000906064015b60408051601f198184030181529190526020810180517bffffffffffffffffffffffffffffffffffffffffffffffffffffffff166001600160e01b031990931692909217909152612a55565b611cc16040518060800160405280606081526020016060815260200160608152602001600081525090565b611cca83612b91565b8152611cde6001600160a01b038316612b91565b604082015292915050565b600080611d21670de0b6b3a76400007f0000000000000000000000000000000000000000000000000000000000000000856002610d0d565b9050806040015151600014611d855780518051633b9aca00918691611d4890600190613a12565b81518110611d6657634e487b7160e01b600052603260045260246000fd5b6020026020010151611d7891906139f3565b611d8291906139d3565b91505b5092915050565b611db76040518060800160405280606081526020016060815260200160608152602001600081525090565b6000611dc284612bbb565b905060008084151581611dd68c8c8c61172d565b90508060600151600014611e84578115611e625780600001516001600160a01b03166369cff80d6040518163ffffffff1660e01b815260040160206040518083038186803b158015611e2757600080fd5b505afa158015611e3b573d6000803e3d6000fd5b505050506040513d601f19601f82011682018060405250810190611e5f919061359b565b92505b606081015181516040830151611e7c928892909187612c1e565b806060015193505b600189118015611eaf5750611e9a60028a613a12565b6020896020015151611eac91906139d3565b11155b1561210f5760005b60035481101561210d5760038181548110611ee257634e487b7160e01b600052603260045260246000fd5b6000918252602090912001546001600160a01b038d811691161415611f06576120fb565b6000611f488e8e60038581548110611f2e57634e487b7160e01b600052603260045260246000fd5b6000918252602090912001546001600160a01b031661172d565b9050806060015160001415611f5d57506120fb565b6000611f688b612bbb565b90508415611fe85781600001516001600160a01b03166369cff80d6040518163ffffffff1660e01b815260040160206040518083038186803b158015611fad57600080fd5b505afa158015611fc1573d6000803e3d6000fd5b505050506040513d601f19601f82011682018060405250810190611fe5919061359b565b95505b60608201518251604084015161200292849290918a612c1e565b61204982606001516003858154811061202b57634e487b7160e01b600052603260045260246000fd5b6000918252602090912001546001600160a01b03168f8f858f611d8c565b9050600061205682612ce2565b9050600061206383612cf5565b9050816001600160a01b03168f6001600160a01b031614801561208557508881115b156120f6578960600151836060015111156120ef576000633b9aca008b6060015185606001516120b59190613a12565b6120bf908f6139f3565b6120c991906139d3565b905060006120d78b84613a12565b9050808211156120ec575050505050506120fb565b50505b8098508299505b505050505b8061210581613a6c565b915050611eb7565b505b50929a9950505050505050505050565b61214a6040518060800160405280606081526020016060815260200160608152602001600081525090565b60405180608001604052806121628460000151612d0a565b81526020016121748460200151612de6565b81526020016121868460400151612de6565b815260200183606001518152509050919050565b610e4a8133612eb9565b6000828152602081815260408083206001600160a01b038516845290915290205460ff16610c30576000828152602081815260408083206001600160a01b03851684529091529020805460ff191660011790556121fe3390565b6001600160a01b0316816001600160a01b0316837f2f8788117e7eff1d82e926ec794901d17c78024a50270940304540a733656f0d60405160405180910390a45050565b6000828152602081815260408083206001600160a01b038516845290915290205460ff1615610c30576000828152602081815260408083206001600160a01b0385168085529252808320805460ff1916905551339285917ff6391f5c32d9c69d2a47ea670b442974b53935d1edc7fd64eb21e047a839171b9190a45050565b60008435821515806122d557506000600154115b15612349576122e5863584612f37565b90506123496122f7604088018861396c565b600081811061231657634e487b7160e01b600052603260045260246000fd5b905060200201602081019061232b919061332e565b60025487906001600160a01b0316612344858b35613a12565b612fb3565b6123d5612359604088018861396c565b600081811061237857634e487b7160e01b600052603260045260246000fd5b905060200201602081019061238d919061332e565b8661239b60608a018a61396c565b60008181106123ba57634e487b7160e01b600052603260045260246000fd5b90506020020160208101906123cf919061332e565b84612fb3565b60006123e4604088018861396c565b60016123f360408b018b61396c565b6123fe929150613a12565b81811061241b57634e487b7160e01b600052603260045260246000fd5b9050602002016020810190612430919061332e565b6040516370a0823160e01b81526001600160a01b0387811660048301529192506000918316906370a082319060240160206040518083038186803b15801561247757600080fd5b505afa15801561248b573d6000803e3d6000fd5b505050506040513d601f19601f820116820180604052508101906124af919061359b565b905060005b6124c160608a018a61396c565b905081101561277057600060016124db60608c018c61396c565b6124e6929150613a12565b82106124f2578761253c565b6124ff60608b018b61396c565b61250a8460016139bb565b81811061252757634e487b7160e01b600052603260045260246000fd5b905060200201602081019061253c919061332e565b905061254b60608b018b61396c565b8381811061256957634e487b7160e01b600052603260045260246000fd5b905060200201602081019061257e919061332e565b6001600160a01b031663eab90da686600061259c60408f018f61396c565b878181106125ba57634e487b7160e01b600052603260045260246000fd5b90506020020160208101906125cf919061332e565b8e80604001906125df919061396c565b6125ea8960016139bb565b81811061260757634e487b7160e01b600052603260045260246000fd5b905060200201602081019061261c919061332e565b6040516001600160e01b031960e087901b168152600481019490945260248401929092526001600160a01b03908116604484015290811660648301528416608482015260a401600060405180830381600087803b15801561267c57600080fd5b505af1158015612690573d6000803e3d6000fd5b506126a29250505060408b018b61396c565b6126ad8460016139bb565b8181106126ca57634e487b7160e01b600052603260045260246000fd5b90506020020160208101906126df919061332e565b6040516370a0823160e01b81526001600160a01b03838116600483015291909116906370a082319060240160206040518083038186803b15801561272257600080fd5b505afa158015612736573d6000803e3d6000fd5b505050506040513d601f19601f8201168201806040525081019061275a919061359b565b945050808061276890613a6c565b9150506124b4565b50600061277d8285613a12565b905088602001358110156127f95760405162461bcd60e51b815260206004820152602560248201527f59616b526f757465723a20496e73756666696369656e74206f7574707574206160448201527f6d6f756e74000000000000000000000000000000000000000000000000000000606482015260840161094a565b6001600160a01b03831661281060408b018b61396c565b600081811061282f57634e487b7160e01b600052603260045260246000fd5b9050602002016020810190612844919061332e565b604080518c358152602081018590526001600160a01b0392909216917f9fc8352e52998db4087d5e6e1c1aafa38788e749e5d7a24f5cb230f737954402910160405180910390a398975050505050505050565b6040516001600160a01b038316602482015260448101829052610ad29084907fa9059cbb0000000000000000000000000000000000000000000000000000000090606401611c4a565b6040517f2e1a7d4d000000000000000000000000000000000000000000000000000000008152600481018290527f00000000000000000000000000000000000000000000000000000000000000006001600160a01b031690632e1a7d4d90602401600060405180830381600087803b15801561295b57600080fd5b505af115801561296f573d6000803e3d6000fd5b5050505050565b306001600160a01b03821614610ad2576001600160a01b0383166129ca576040516001600160a01b0382169083156108fc029084906000818181858888f19350505050158015610e59573d6000803e3d6000fd5b610ad26001600160a01b0384168284612897565b7f00000000000000000000000000000000000000000000000000000000000000006001600160a01b031663d0e30db0826040518263ffffffff1660e01b81526004016000604051808303818588803b158015612a3957600080fd5b505af1158015612a4d573d6000803e3d6000fd5b505050505050565b600080836001600160a01b031683604051612a7091906137c0565b6000604051808303816000865af19150503d8060008114612aad576040519150601f19603f3d011682016040523d82523d6000602084013e612ab2565b606091505b509150915081612b045760405162461bcd60e51b815260206004820181905260248201527f5361666545524332303a206c6f772d6c6576656c2063616c6c206661696c6564604482015260640161094a565b805115610e595780806020019051810190612b1f9190613438565b610e595760405162461bcd60e51b815260206004820152602a60248201527f5361666545524332303a204552433230206f7065726174696f6e20646964206e60448201527f6f74207375636365656400000000000000000000000000000000000000000000606482015260840161094a565b60408051602080825281830190925260609160208201818036833750505060208101929092525090565b612be66040518060800160405280606081526020016060815260200160608152602001600081525090565b604051806080016040528083600001518152602001836020015181526020018360400151815260200183606001518152509050919050565b8460400151612c35836001600160a01b0316612b91565b604051602001612c469291906137dc565b60408051601f198184030181529181528601526020850151612c706001600160a01b038516612b91565b604051602001612c819291906137dc565b60408051601f1981840301815291905260208601528451612ca185612b91565b604051602001612cb29291906137dc565b60408051601f198184030181529190528552606085018051829190612cd89083906139bb565b9052505050505050565b604081015180516000916108c191612d9e565b60408101515181516000916108c19190612d9e565b606060208251612d1a91906139d3565b67ffffffffffffffff811115612d4057634e487b7160e01b600052604160045260246000fd5b604051908082528060200260200182016040528015612d69578160200160208202803683370190505b50905060005b60208351612d7d91906139d3565b811015612de057612da383612d938360206139f3565b612d9e9060206139bb565b015190565b828281518110612dc357634e487b7160e01b600052603260045260246000fd5b602090810291909101015280612dd881613a6c565b915050612d6f565b50919050565b606060208251612df691906139d3565b67ffffffffffffffff811115612e1c57634e487b7160e01b600052604160045260246000fd5b604051908082528060200260200182016040528015612e45578160200160208202803683370190505b50905060005b60208351612e5991906139d3565b811015612de057612e6f83612d938360206139f3565b828281518110612e8f57634e487b7160e01b600052603260045260246000fd5b6001600160a01b039092166020928302919091019091015280612eb181613a6c565b915050612e4b565b6000828152602081815260408083206001600160a01b038516845290915290205460ff16610c3057612ef5816001600160a01b03166014612ff1565b612f00836020612ff1565b604051602001612f1192919061380b565b60408051601f198184030181529082905262461bcd60e51b825261094a9160040161389f565b6000600154821015612f8b5760405162461bcd60e51b815260206004820152601b60248201527f59616b526f757465723a20496e73756666696369656e74206665650000000000604482015260640161094a565b612710612f988382613a12565b612fa290856139f3565b612fac91906139d3565b9392505050565b6001600160a01b0383163014612fdd57612fd86001600160a01b038516848484613218565b610e59565b610e596001600160a01b0385168383612897565b606060006130008360026139f3565b61300b9060026139bb565b67ffffffffffffffff81111561303157634e487b7160e01b600052604160045260246000fd5b6040519080825280601f01601f19166020018201604052801561305b576020820181803683370190505b5090507f3000000000000000000000000000000000000000000000000000000000000000816000815181106130a057634e487b7160e01b600052603260045260246000fd5b60200101906001600160f81b031916908160001a9053507f7800000000000000000000000000000000000000000000000000000000000000816001815181106130f957634e487b7160e01b600052603260045260246000fd5b60200101906001600160f81b031916908160001a905350600061311d8460026139f3565b6131289060016139bb565b90505b60018111156131c9577f303132333435363738396162636465660000000000000000000000000000000085600f166010811061317757634e487b7160e01b600052603260045260246000fd5b1a60f81b82828151811061319b57634e487b7160e01b600052603260045260246000fd5b60200101906001600160f81b031916908160001a90535060049490941c936131c281613a55565b905061312b565b508315612fac5760405162461bcd60e51b815260206004820181905260248201527f537472696e67733a20686578206c656e67746820696e73756666696369656e74604482015260640161094a565b6040516001600160a01b0380851660248301528316604482015260648101829052610e599085907f23b872dd0000000000000000000000000000000000000000000000000000000090608401611c4a565b8280548282559060005260206000209081019282156132cb579160200282015b828111156132cb578251825473ffffffffffffffffffffffffffffffffffffffff19166001600160a01b03909116178255602090920191600190910190613289565b506132d79291506132db565b5090565b5b808211156132d757600081556001016132dc565b80356001600160a01b038116811461330757600080fd5b919050565b600060808284031215612de0578081fd5b803560ff8116811461330757600080fd5b60006020828403121561333f578081fd5b612fac826132f0565b6000806040838503121561335a578081fd5b613363836132f0565b946020939093013593505050565b60006020808385031215613383578182fd5b823567ffffffffffffffff8082111561339a578384fd5b818501915085601f8301126133ad578384fd5b8135818111156133bf576133bf613abd565b8060051b604051601f19603f830116810181811085821117156133e4576133e4613abd565b604052828152858101935084860182860187018a1015613402578788fd5b8795505b8386101561342b57613417816132f0565b855260019590950194938601938601613406565b5098975050505050505050565b600060208284031215613449578081fd5b81518015158114612fac578182fd5b600060208284031215613469578081fd5b5035919050565b60008060408385031215613482578182fd5b82359150613492602084016132f0565b90509250929050565b6000602082840312156134ac578081fd5b81356001600160e01b031981168114612fac578182fd5b6000806000606084860312156134d7578081fd5b833567ffffffffffffffff8111156134ed578182fd5b6134f98682870161330c565b935050613508602085016132f0565b9150604084013590509250925092565b600080600080600080600060e0888a031215613532578283fd5b873567ffffffffffffffff811115613548578384fd5b6135548a828b0161330c565b975050613563602089016132f0565b9550604088013594506060880135935061357f6080890161331d565b925060a0880135915060c0880135905092959891949750929550565b6000602082840312156135ac578081fd5b5051919050565b6000806000606084860312156135c7578283fd5b833592506135d7602085016132f0565b91506135e5604085016132f0565b90509250925092565b600080600080600060808688031215613605578081fd5b85359450613615602087016132f0565b9350613623604087016132f0565b9250606086013567ffffffffffffffff8082111561363f578283fd5b818801915088601f830112613652578283fd5b813581811115613660578384fd5b8960208260051b8501011115613674578384fd5b9699959850939650602001949392505050565b6000806000806080858703121561369c578182fd5b843593506136ac602086016132f0565b92506136ba604086016132f0565b9396929550929360600135925050565b600080600080600060a086880312156136e1578283fd5b853594506136f1602087016132f0565b93506136ff604087016132f0565b94979396509394606081013594506080013592915050565b6000806000806080858703121561372c578182fd5b8435935061373c602086016132f0565b925061374a604086016132f0565b91506137586060860161331d565b905092959194509250565b600060208284031215613774578081fd5b612fac8261331d565b6000815180845260208085019450808401835b838110156137b55781516001600160a01b031687529582019590820190600101613790565b509495945050505050565b600082516137d2818460208701613a29565b9190910192915050565b600083516137ee818460208801613a29565b835190830190613802818360208801613a29565b01949350505050565b7f416363657373436f6e74726f6c3a206163636f756e7420000000000000000000815260008351613843816017850160208801613a29565b7f206973206d697373696e6720726f6c65200000000000000000000000000000006017918401918201528351613880816028840160208801613a29565b01602801949350505050565b602081526000612fac602083018461377d565b60208152600082518060208401526138be816040850160208701613a29565b601f01601f19169190910160400192915050565b60208082528251608083830152805160a0840181905260009291820190839060c08601905b8083101561391757835182529284019260019290920191908401906138f7565b50838701519350601f19925082868203016040870152613937818561377d565b93505050604085015181858403016060860152613954838261377d565b92505050606084015160808401528091505092915050565b6000808335601e19843603018112613982578283fd5b83018035915067ffffffffffffffff82111561399c578283fd5b6020019150600581901b36038213156139b457600080fd5b9250929050565b600082198211156139ce576139ce613aa7565b500190565b6000826139ee57634e487b7160e01b81526012600452602481fd5b500490565b6000816000190483118215151615613a0d57613a0d613aa7565b500290565b600082821015613a2457613a24613aa7565b500390565b60005b83811015613a44578181015183820152602001613a2c565b83811115610e595750506000910152565b600081613a6457613a64613aa7565b506000190190565b6000600019821415613a8057613a80613aa7565b5060010190565b600060ff821660ff811415613a9e57613a9e613aa7565b60010192915050565b634e487b7160e01b600052601160045260246000fd5b634e487b7160e01b600052604160045260246000fdfea26469706673582212202162d400f29e78c3fe1f88a4438a06bdf649d6237321760439619729f136b72a64736f6c63430008040033a54247010af6b3693b80aceddfad12e077c5de3571e6243fada502635f0d7d394d61696e7461696e61626c653a2043616c6c6572206973206e6f742061206d61",
  "devdoc": {
    "kind": "dev",
    "methods": {
      "getRoleAdmin(bytes32)": {
        "details": "Returns the admin role that controls `role`. See {grantRole} and {revokeRole}. To change a role's admin, use {_setRoleAdmin}."
      },
      "grantRole(bytes32,address)": {
        "details": "Grants `role` to `account`. If `account` had not been already granted `role`, emits a {RoleGranted} event. Requirements: - the caller must have ``role``'s admin role. May emit a {RoleGranted} event."
      },
      "hasRole(bytes32,address)": {
        "details": "Returns `true` if `account` has been granted `role`."
      },
      "recoverERC20(address,uint256)": {
        "params": {
          "_tokenAddress": "token address",
          "_tokenAmount": "amount to recover"
        }
      },
      "recoverNative(uint256)": {
        "params": {
          "_amount": "amount"
        }
      },
      "renounceRole(bytes32,address)": {
        "details": "Revokes `role` from the calling account. Roles are often managed via {grantRole} and {revokeRole}: this function's purpose is to provide a mechanism for accounts to lose their privileges if they are compromised (such as when a trusted device is misplaced). If the calling account had been revoked `role`, emits a {RoleRevoked} event. Requirements: - the caller must be `account`. May emit a {RoleRevoked} event."
      },
      "revokeRole(bytes32,address)": {
        "details": "Revokes `role` from `account`. If `account` had been granted `role`, emits a {RoleRevoked} event. Requirements: - the caller must have ``role``'s admin role. May emit a {RoleRevoked} event."
      },
      "supportsInterface(bytes4)": {
        "details": "See {IERC165-supportsInterface}."
      }
    },
    "version": 1
  },
  "userdoc": {
    "kind": "user",
    "methods": {
      "findBestPath(uint256,address,address,uint256)": {
        "notice": "Return path with best returns between two tokens"
      },
      "findBestPathWithGas(uint256,address,address,uint256,uint256)": {
        "notice": "Return path with best returns between two tokens Takes gas-cost into account"
      },
      "queryAdapter(uint256,address,address,uint8)": {
        "notice": "Query single adapter"
      },
      "queryNoSplit(uint256,address,address)": {
        "notice": "Query all adapters"
      },
      "queryNoSplit(uint256,address,address,uint8[])": {
        "notice": "Query specified adapters"
      },
      "recoverERC20(address,uint256)": {
        "notice": "Recover ERC20 from contract"
      },
      "recoverNative(uint256)": {
        "notice": "Recover native asset from contract"
      },
      "swapNoSplitToAVAXWithPermit((uint256,uint256,address[],address[]),address,uint256,uint256,uint8,bytes32,bytes32)": {
        "notice": "Swap token to AVAX without the need to approve the first token"
      },
      "swapNoSplitWithPermit((uint256,uint256,address[],address[]),address,uint256,uint256,uint8,bytes32,bytes32)": {
        "notice": "Swap token to token without the need to approve the first token"
      }
    },
    "version": 1
  },
  "storageLayout": {
    "storage": [
      {
        "astId": 24,
        "contract": "src/contracts/YakRouter.sol:YakRouter",
        "label": "_roles",
        "offset": 0,
        "slot": "0",
        "type": "t_mapping(t_bytes32,t_struct(RoleData)19_storage)"
      },
      {
        "astId": 719,
        "contract": "src/contracts/YakRouter.sol:YakRouter",
        "label": "MIN_FEE",
        "offset": 0,
        "slot": "1",
        "type": "t_uint256"
      },
      {
        "astId": 721,
        "contract": "src/contracts/YakRouter.sol:YakRouter",
        "label": "FEE_CLAIMER",
        "offset": 0,
        "slot": "2",
        "type": "t_address"
      },
      {
        "astId": 724,
        "contract": "src/contracts/YakRouter.sol:YakRouter",
        "label": "TRUSTED_TOKENS",
        "offset": 0,
        "slot": "3",
        "type": "t_array(t_address)dyn_storage"
      },
      {
        "astId": 727,
        "contract": "src/contracts/YakRouter.sol:YakRouter",
        "label": "ADAPTERS",
        "offset": 0,
        "slot": "4",
        "type": "t_array(t_address)dyn_storage"
      }
    ],
    "types": {
      "t_address": {
        "encoding": "inplace",
        "label": "address",
        "numberOfBytes": "20"
      },
      "t_array(t_address)dyn_storage": {
        "base": "t_address",
        "encoding": "dynamic_array",
        "label": "address[]",
        "numberOfBytes": "32"
      },
      "t_bool": {
        "encoding": "inplace",
        "label": "bool",
        "numberOfBytes": "1"
      },
      "t_bytes32": {
        "encoding": "inplace",
        "label": "bytes32",
        "numberOfBytes": "32"
      },
      "t_mapping(t_address,t_bool)": {
        "encoding": "mapping",
        "key": "t_address",
        "label": "mapping(address => bool)",
        "numberOfBytes": "32",
        "value": "t_bool"
      },
      "t_mapping(t_bytes32,t_struct(RoleData)19_storage)": {
        "encoding": "mapping",
        "key": "t_bytes32",
        "label": "mapping(bytes32 => struct AccessControl.RoleData)",
        "numberOfBytes": "32",
        "value": "t_struct(RoleData)19_storage"
      },
      "t_struct(RoleData)19_storage": {
        "encoding": "inplace",
        "label": "struct AccessControl.RoleData",
        "members": [
          {
            "astId": 16,
            "contract": "src/contracts/YakRouter.sol:YakRouter",
            "label": "members",
            "offset": 0,
            "slot": "0",
            "type": "t_mapping(t_address,t_bool)"
          },
          {
            "astId": 18,
            "contract": "src/contracts/YakRouter.sol:YakRouter",
            "label": "adminRole",
            "offset": 0,
            "slot": "1",
            "type": "t_bytes32"
          }
        ],
        "numberOfBytes": "64"
      },
      "t_uint256": {
        "encoding": "inplace",
        "label": "uint256",
        "numberOfBytes": "32"
      }
    }
  }
}